{
  "transactions": [
    {
      "hash": "0xf3120ea5ca662947f3dbf14d4675bf816064d812492a7c1c65bd6218b9519d27",
      "transactionType": "CALL",
      "contractName": null,
      "contractAddress": "0x4200000000000000000000000000000000000006",
      "function": "transfer(address,uint256)",
      "arguments": [
        "0xf39Fd6e51aad88F6F4ce6aB8827279cffFb92266",
        "100000000000000000000"
      ],
      "transaction": {
        "from": "0x07ae8551be970cb1cca11dd7a11f47ae82e70e67",
        "to": "0x4200000000000000000000000000000000000006",
        "gas": "0x12553",
        "value": "0x0",
        "input": "0xa9059cbb000000000000000000000000f39fd6e51aad88f6f4ce6ab8827279cfffb922660000000000000000000000000000000000000000000000056bc75e2d63100000",
        "nonce": "0xe0ac5",
        "chainId": "0x2105"
      },
      "additionalContracts": [],
      "isFixedGasLimit": false
    },
    {
      "hash": "0x37933aa1376fab00bbf5872b6f07d89960659524ea803942973857018819a8af",
      "transactionType": "CALL",
      "contractName": null,
      "contractAddress": "0x50c5725949a6f0c72e6c4a641f24049a917db0cb",
      "function": "transfer(address,uint256)",
      "arguments": [
        "0xf39Fd6e51aad88F6F4ce6aB8827279cffFb92266",
        "100000000000000000000"
      ],
      "transaction": {
        "from": "0x2ab5618c63060119fbb8ddd3a6f8097a10775c74",
        "to": "0x50c5725949a6f0c72e6c4a641f24049a917db0cb",
        "gas": "0x115fa",
        "value": "0x0",
        "input": "0xa9059cbb000000000000000000000000f39fd6e51aad88f6f4ce6ab8827279cfffb922660000000000000000000000000000000000000000000000056bc75e2d63100000",
        "nonce": "0x8",
        "chainId": "0x2105"
      },
      "additionalContracts": [],
      "isFixedGasLimit": false
    },
    {
      "hash": "0x2caeba1873cb42ad78ea328dc70b026b23038c406b23959c0fa50da140328a9f",
      "transactionType": "CREATE",
      "contractName": "LendingPool",
      "contractAddress": "0xdced252d791de136faf3252e0768acef8de2141f",
      "function": null,
      "arguments": [
        "0x8250f4aF4B972684F7b336503E2D6dFeDeB1487a",
        "0x9d4294bbcd1174d6f2003ec365831e64cc31d9f6f15a2b85399db8d5000960f6",
        "0xb0948a5e5313200c632b51bb5ca32f6de0d36e9950a942d19751e833f70dabfd",
        "0x4200000000000000000000000000000000000006",
        "0x50c5725949A6F0c72E6C4a641F24049A917DB0Cb",
        "5000"
      ],
      "transaction": {
        "from": "0xf39fd6e51aad88f6f4ce6ab8827279cfffb92266",
        "gas": "0x12d651",
        "value": "0x0",
        "input": "0x608060405234801561000f575f5ffd5b50604051610fff380380610fff833981810160405281019061003191906101d4565b855f5f6101000a81548173ffffffffffffffffffffffffffffffffffffffff021916908373ffffffffffffffffffffffffffffffffffffffff16021790555084600181905550836002819055508260035f6101000a81548173ffffffffffffffffffffffffffffffffffffffff021916908373ffffffffffffffffffffffffffffffffffffffff1602179055508160045f6101000a81548173ffffffffffffffffffffffffffffffffffffffff021916908373ffffffffffffffffffffffffffffffffffffffff1602179055508060058190555050505050505061025d565b5f5ffd5b5f73ffffffffffffffffffffffffffffffffffffffff82169050919050565b5f61013d82610114565b9050919050565b61014d81610133565b8114610157575f5ffd5b50565b5f8151905061016881610144565b92915050565b5f819050919050565b6101808161016e565b811461018a575f5ffd5b50565b5f8151905061019b81610177565b92915050565b5f819050919050565b6101b3816101a1565b81146101bd575f5ffd5b50565b5f815190506101ce816101aa565b92915050565b5f5f5f5f5f5f60c087890312156101ee576101ed610110565b5b5f6101fb89828a0161015a565b965050602061020c89828a0161018d565b955050604061021d89828a0161018d565b945050606061022e89828a0161015a565b935050608061023f89828a0161015a565b92505060a061025089828a016101c0565b9150509295509295509295565b610d958061026a5f395ff3fe608060405260043610610042575f3560e01c8063217a4b701461004d578063371fd8e614610077578063c55dae6314610093578063c5ebeaec146100bd57610049565b3661004957005b5f5ffd5b348015610058575f5ffd5b506100616100f9565b60405161006e919061076e565b60405180910390f35b610091600480360381019061008c91906107c7565b61011e565b005b34801561009e575f5ffd5b506100a761027a565b6040516100b4919061076e565b60405180910390f35b3480156100c8575f5ffd5b506100e360048036038101906100de91906107c7565b61029f565b6040516100f09190610801565b60405180910390f35b60045f9054906101000a900473ffffffffffffffffffffffffffffffffffffffff1681565b5f60075f8381526020019081526020015f20905060035f9054906101000a900473ffffffffffffffffffffffffffffffffffffffff1673ffffffffffffffffffffffffffffffffffffffff166323b872dd333084600101546040518463ffffffff1660e01b81526004016101949392919061083a565b6020604051808303815f875af11580156101b0573d5f5f3e3d5ffd5b505050506040513d601f19601f820116820180604052508101906101d491906108a4565b5060045f9054906101000a900473ffffffffffffffffffffffffffffffffffffffff1673ffffffffffffffffffffffffffffffffffffffff1663a9059cbb3383600201546040518363ffffffff1660e01b81526004016102359291906108cf565b6020604051808303815f875af1158015610251573d5f5f3e3d5ffd5b505050506040513d601f19601f8201168201806040525081019061027591906108a4565b505050565b60035f9054906101000a900473ffffffffffffffffffffffffffffffffffffffff1681565b5f5f5f5f9054906101000a900473ffffffffffffffffffffffffffffffffffffffff1673ffffffffffffffffffffffffffffffffffffffff1663a4ae35e0600154603c6040518363ffffffff1660e01b81526004016102ff929190610947565b608060405180830381865afa15801561031a573d5f5f3e3d5ffd5b505050506040513d601f19601f8201168201806040525081019061033e9190610b2c565b90505f5f5f9054906101000a900473ffffffffffffffffffffffffffffffffffffffff1673ffffffffffffffffffffffffffffffffffffffff1663a4ae35e0600254603c6040518363ffffffff1660e01b815260040161039f929190610947565b608060405180830381865afa1580156103ba573d5f5f3e3d5ffd5b505050506040513d601f19601f820116820180604052508101906103de9190610b2c565b90505f73a438327c775e9092dbbb8155eb726c448dccaed563b55522b2845f0151856040015160126040518463ffffffff1660e01b815260040161042493929190610bba565b602060405180830381865af415801561043f573d5f5f3e3d5ffd5b505050506040513d601f19601f820116820180604052508101906104639190610bef565b90505f73a438327c775e9092dbbb8155eb726c448dccaed563b55522b2845f0151856040015160126040518463ffffffff1660e01b81526004016104a993929190610bba565b602060405180830381865af41580156104c4573d5f5f3e3d5ffd5b505050506040513d601f19601f820116820180604052508101906104e89190610bef565b90505f6001600554836104fb9190610c47565b612710858a61050a9190610c47565b6105149190610c47565b61051e9190610cb5565b6105289190610ce5565b905060045f9054906101000a900473ffffffffffffffffffffffffffffffffffffffff1673ffffffffffffffffffffffffffffffffffffffff166323b872dd3330846040518463ffffffff1660e01b81526004016105889392919061083a565b6020604051808303815f875af11580156105a4573d5f5f3e3d5ffd5b505050506040513d601f19601f820116820180604052508101906105c891906108a4565b5060035f9054906101000a900473ffffffffffffffffffffffffffffffffffffffff1673ffffffffffffffffffffffffffffffffffffffff1663a9059cbb33896040518363ffffffff1660e01b81526004016106259291906108cf565b6020604051808303815f875af1158015610641573d5f5f3e3d5ffd5b505050506040513d601f19601f8201168201806040525081019061066591906108a4565b50600654955060065f81548092919061067d90610d18565b91905055505f60075f8881526020019081526020015f20905033815f015f6101000a81548173ffffffffffffffffffffffffffffffffffffffff021916908373ffffffffffffffffffffffffffffffffffffffff160217905550878160010181905550818160020181905550505050505050919050565b5f73ffffffffffffffffffffffffffffffffffffffff82169050919050565b5f819050919050565b5f61073661073161072c846106f4565b610713565b6106f4565b9050919050565b5f6107478261071c565b9050919050565b5f6107588261073d565b9050919050565b6107688161074e565b82525050565b5f6020820190506107815f83018461075f565b92915050565b5f604051905090565b5f5ffd5b5f819050919050565b6107a681610794565b81146107b0575f5ffd5b50565b5f813590506107c18161079d565b92915050565b5f602082840312156107dc576107db610790565b5b5f6107e9848285016107b3565b91505092915050565b6107fb81610794565b82525050565b5f6020820190506108145f8301846107f2565b92915050565b5f610824826106f4565b9050919050565b6108348161081a565b82525050565b5f60608201905061084d5f83018661082b565b61085a602083018561082b565b61086760408301846107f2565b949350505050565b5f8115159050919050565b6108838161086f565b811461088d575f5ffd5b50565b5f8151905061089e8161087a565b92915050565b5f602082840312156108b9576108b8610790565b5b5f6108c684828501610890565b91505092915050565b5f6040820190506108e25f83018561082b565b6108ef60208301846107f2565b9392505050565b5f819050919050565b610908816108f6565b82525050565b5f819050919050565b5f61093161092c6109278461090e565b610713565b610794565b9050919050565b61094181610917565b82525050565b5f60408201905061095a5f8301856108ff565b6109676020830184610938565b9392505050565b5f5ffd5b5f601f19601f8301169050919050565b7f4e487b71000000000000000000000000000000000000000000000000000000005f52604160045260245ffd5b6109b882610972565b810181811067ffffffffffffffff821117156109d7576109d6610982565b5b80604052505050565b5f6109e9610787565b90506109f582826109af565b919050565b5f8160070b9050919050565b610a0f816109fa565b8114610a19575f5ffd5b50565b5f81519050610a2a81610a06565b92915050565b5f67ffffffffffffffff82169050919050565b610a4c81610a30565b8114610a56575f5ffd5b50565b5f81519050610a6781610a43565b92915050565b5f8160030b9050919050565b610a8281610a6d565b8114610a8c575f5ffd5b50565b5f81519050610a9d81610a79565b92915050565b5f81519050610ab18161079d565b92915050565b5f60808284031215610acc57610acb61096e565b5b610ad660806109e0565b90505f610ae584828501610a1c565b5f830152506020610af884828501610a59565b6020830152506040610b0c84828501610a8f565b6040830152506060610b2084828501610aa3565b60608301525092915050565b5f60808284031215610b4157610b40610790565b5b5f610b4e84828501610ab7565b91505092915050565b610b60816109fa565b82525050565b610b6f81610a6d565b82525050565b5f819050919050565b5f60ff82169050919050565b5f610ba4610b9f610b9a84610b75565b610713565b610b7e565b9050919050565b610bb481610b8a565b82525050565b5f606082019050610bcd5f830186610b57565b610bda6020830185610b66565b610be76040830184610bab565b949350505050565b5f60208284031215610c0457610c03610790565b5b5f610c1184828501610aa3565b91505092915050565b7f4e487b71000000000000000000000000000000000000000000000000000000005f52601160045260245ffd5b5f610c5182610794565b9150610c5c83610794565b9250828202610c6a81610794565b91508282048414831517610c8157610c80610c1a565b5b5092915050565b7f4e487b71000000000000000000000000000000000000000000000000000000005f52601260045260245ffd5b5f610cbf82610794565b9150610cca83610794565b925082610cda57610cd9610c88565b5b828204905092915050565b5f610cef82610794565b9150610cfa83610794565b9250828201905080821115610d1257610d11610c1a565b5b92915050565b5f610d2282610794565b91507fffffffffffffffffffffffffffffffffffffffffffffffffffffffffffffffff8203610d5457610d53610c1a565b5b60018201905091905056fea26469706673582212201ee3000b680c57902fdeaa57ea9326766c80c320bd252e9f4dbb5df51d1cf3ee64736f6c634300081d00330000000000000000000000008250f4af4b972684f7b336503e2d6dfedeb1487a9d4294bbcd1174d6f2003ec365831e64cc31d9f6f15a2b85399db8d5000960f6b0948a5e5313200c632b51bb5ca32f6de0d36e9950a942d19751e833f70dabfd000000000000000000000000420000000000000000000000000000000000000600000000000000000000000050c5725949a6f0c72e6c4a641f24049a917db0cb0000000000000000000000000000000000000000000000000000000000001388",
        "nonce": "0x814",
        "chainId": "0x2105"
      },
      "additionalContracts": [],
      "isFixedGasLimit": false
    },
    {
      "hash": "0xdf7644a71267fc9cc0923e27da7833188a68ca83abe8c25789d3ac8223b905ee",
      "transactionType": "CALL",
      "contractName": null,
      "contractAddress": "0x4200000000000000000000000000000000000006",
      "function": "transfer(address,uint256)",
      "arguments": [
        "0xdceD252d791De136FAf3252e0768AceF8de2141f",
        "5000000000000000000"
      ],
      "transaction": {
        "from": "0xf39fd6e51aad88f6f4ce6ab8827279cfffb92266",
        "to": "0x4200000000000000000000000000000000000006",
        "gas": "0x114f7",
        "value": "0x0",
        "input": "0xa9059cbb000000000000000000000000dced252d791de136faf3252e0768acef8de2141f0000000000000000000000000000000000000000000000004563918244f40000",
        "nonce": "0x815",
        "chainId": "0x2105"
      },
      "additionalContracts": [],
      "isFixedGasLimit": false
    },
    {
      "hash": "0x18a55221509a1976d64a32b9fd9d3581a33b3928f0a8480fbf55bae0b9d3515b",
      "transactionType": "CALL",
      "contractName": null,
      "contractAddress": "0x50c5725949a6f0c72e6c4a641f24049a917db0cb",
      "function": "transfer(address,uint256)",
      "arguments": [
        "0xdceD252d791De136FAf3252e0768AceF8de2141f",
        "5000000000000000000"
      ],
      "transaction": {
        "from": "0xf39fd6e51aad88f6f4ce6ab8827279cfffb92266",
        "to": "0x50c5725949a6f0c72e6c4a641f24049a917db0cb",
        "gas": "0x115e9",
        "value": "0x0",
        "input": "0xa9059cbb000000000000000000000000dced252d791de136faf3252e0768acef8de2141f0000000000000000000000000000000000000000000000004563918244f40000",
        "nonce": "0x816",
        "chainId": "0x2105"
      },
      "additionalContracts": [],
      "isFixedGasLimit": false
    }
  ],
  "receipts": [
    {
      "status": "0x1",
      "cumulativeGasUsed": "0xc891",
      "logs": [
        {
          "address": "0x4200000000000000000000000000000000000006",
          "topics": [
            "0xddf252ad1be2c89b69c2b068fc378daa952ba7f163c4a11628f55a4df523b3ef",
            "0x00000000000000000000000007ae8551be970cb1cca11dd7a11f47ae82e70e67",
            "0x000000000000000000000000f39fd6e51aad88f6f4ce6ab8827279cfffb92266"
          ],
          "data": "0x0000000000000000000000000000000000000000000000056bc75e2d63100000",
          "blockHash": "0xad1f68a79db83876729bd0b568b6c974cbf91cc470829ff7b086b5edd99c78ae",
          "blockNumber": "0x1ee4322",
          "blockTimestamp": "0x6866e4a4",
          "transactionHash": "0xf3120ea5ca662947f3dbf14d4675bf816064d812492a7c1c65bd6218b9519d27",
          "transactionIndex": "0x0",
          "logIndex": "0x0",
          "removed": false
        }
      ],
      "logsBloom": "0x00000000000000000000000000000000000000000000000000040000000000000000000000000000000000100000000010000000000000000000000000000000000000000000000000000008000000000000000000000000000000000000000000000000000000000000000100000000000000000000000000000010000000000000000000000000000000000000000000000000002000000000000000000000000000000000000000000000000000000000000000000000000000000000400000000002000000200000000000000000010000002000000000000000000000000000000000000000000000000000000000000000000000000000000000000000",
      "type": "0x2",
      "transactionHash": "0xf3120ea5ca662947f3dbf14d4675bf816064d812492a7c1c65bd6218b9519d27",
      "transactionIndex": "0x0",
      "blockHash": "0xad1f68a79db83876729bd0b568b6c974cbf91cc470829ff7b086b5edd99c78ae",
      "blockNumber": "0x1ee4322",
      "gasUsed": "0xc891",
      "effectiveGasPrice": "0x8",
      "blobGasPrice": "0x1",
      "from": "0x07ae8551be970cb1cca11dd7a11f47ae82e70e67",
      "to": "0x4200000000000000000000000000000000000006",
      "contractAddress": null
    },
    {
      "status": "0x1",
      "cumulativeGasUsed": "0xc940",
      "logs": [
        {
          "address": "0x50c5725949a6f0c72e6c4a641f24049a917db0cb",
          "topics": [
            "0xddf252ad1be2c89b69c2b068fc378daa952ba7f163c4a11628f55a4df523b3ef",
            "0x0000000000000000000000002ab5618c63060119fbb8ddd3a6f8097a10775c74",
            "0x000000000000000000000000f39fd6e51aad88f6f4ce6ab8827279cfffb92266"
          ],
          "data": "0x0000000000000000000000000000000000000000000000056bc75e2d63100000",
          "blockHash": "0xdd95d20e07f6a20c249f245f263c5c5c61e34fa9240e9eeb4e35ea3e64af24fa",
          "blockNumber": "0x1ee4323",
          "blockTimestamp": "0x6866e4a9",
          "transactionHash": "0x37933aa1376fab00bbf5872b6f07d89960659524ea803942973857018819a8af",
          "transactionIndex": "0x0",
          "logIndex": "0x0",
          "removed": false
        }
      ],
      "logsBloom": "0x00000000000000000000000000040000000000000000000000000000000000000000000000000000000000000000000000000000000000000000000000000000000000000000000000000008000000000000000000000000000000000000000000000000000000000000000100000000000000000000000000080010000000000000000000000000000000000000000000000000000000000000000000000000000010000000000000000000000000000000000000000000000000000000000000000012000000200000000000000000000000002000000000000000000000800000000000000000000000000000000000000000000000000000000002000000",
      "type": "0x2",
      "transactionHash": "0x37933aa1376fab00bbf5872b6f07d89960659524ea803942973857018819a8af",
      "transactionIndex": "0x0",
      "blockHash": "0xdd95d20e07f6a20c249f245f263c5c5c61e34fa9240e9eeb4e35ea3e64af24fa",
      "blockNumber": "0x1ee4323",
      "gasUsed": "0xc940",
      "effectiveGasPrice": "0x8",
      "blobGasPrice": "0x1",
      "from": "0x2ab5618c63060119fbb8ddd3a6f8097a10775c74",
      "to": "0x50c5725949a6f0c72e6c4a641f24049a917db0cb",
      "contractAddress": null
    },
    {
      "status": "0x1",
      "cumulativeGasUsed": "0xe7d7a",
      "logs": [],
      "logsBloom": "0x00000000000000000000000000000000000000000000000000000000000000000000000000000000000000000000000000000000000000000000000000000000000000000000000000000000000000000000000000000000000000000000000000000000000000000000000000000000000000000000000000000000000000000000000000000000000000000000000000000000000000000000000000000000000000000000000000000000000000000000000000000000000000000000000000000000000000000000000000000000000000000000000000000000000000000000000000000000000000000000000000000000000000000000000000000000",
      "type": "0x2",
      "transactionHash": "0x2caeba1873cb42ad78ea328dc70b026b23038c406b23959c0fa50da140328a9f",
      "transactionIndex": "0x0",
      "blockHash": "0x63aa22843b59c3f04c5950c15a310bb00c6ee52a839c69bf3e786c6f8aa3646d",
      "blockNumber": "0x1ee4324",
      "gasUsed": "0xe7d7a",
      "effectiveGasPrice": "0x8",
      "blobGasPrice": "0x1",
      "from": "0xf39fd6e51aad88f6f4ce6ab8827279cfffb92266",
      "to": null,
      "contractAddress": "0xdced252d791de136faf3252e0768acef8de2141f"
    },
    {
      "status": "0x1",
      "cumulativeGasUsed": "0xc885",
      "logs": [
        {
          "address": "0x4200000000000000000000000000000000000006",
          "topics": [
            "0xddf252ad1be2c89b69c2b068fc378daa952ba7f163c4a11628f55a4df523b3ef",
            "0x000000000000000000000000f39fd6e51aad88f6f4ce6ab8827279cfffb92266",
            "0x000000000000000000000000dced252d791de136faf3252e0768acef8de2141f"
          ],
          "data": "0x0000000000000000000000000000000000000000000000004563918244f40000",
          "blockHash": "0x291baf0bb024daa4c024a8e97660b7d6a2ff81c8db7230138503167f65cc8b19",
          "blockNumber": "0x1ee4325",
          "blockTimestamp": "0x6866e4b3",
          "transactionHash": "0xdf7644a71267fc9cc0923e27da7833188a68ca83abe8c25789d3ac8223b905ee",
          "transactionIndex": "0x0",
          "logIndex": "0x0",
          "removed": false
        }
      ],
      "logsBloom": "0x00000000000000000000000000000000000000000000000000040000000000000000800000000000000000100000000000000000000000000000000000000000000000000000000000000008000000000000000000000000000000000000000000000000000000000000000100000000000100000000000000000010000000010000000000000000000000000000000000000000002000000000000000000000000000000000000000000000000000000000000000000000000000000000000000000002000000200000000000000000000000002000000000000000000000000000000000000000000000000000000000000000000000000000000000000000",
      "type": "0x2",
      "transactionHash": "0xdf7644a71267fc9cc0923e27da7833188a68ca83abe8c25789d3ac8223b905ee",
      "transactionIndex": "0x0",
      "blockHash": "0x291baf0bb024daa4c024a8e97660b7d6a2ff81c8db7230138503167f65cc8b19",
      "blockNumber": "0x1ee4325",
      "gasUsed": "0xc885",
      "effectiveGasPrice": "0x8",
      "blobGasPrice": "0x1",
      "from": "0xf39fd6e51aad88f6f4ce6ab8827279cfffb92266",
      "to": "0x4200000000000000000000000000000000000006",
      "contractAddress": null
    },
    {
      "status": "0x1",
      "cumulativeGasUsed": "0xc934",
      "logs": [
        {
          "address": "0x50c5725949a6f0c72e6c4a641f24049a917db0cb",
          "topics": [
            "0xddf252ad1be2c89b69c2b068fc378daa952ba7f163c4a11628f55a4df523b3ef",
            "0x000000000000000000000000f39fd6e51aad88f6f4ce6ab8827279cfffb92266",
            "0x000000000000000000000000dced252d791de136faf3252e0768acef8de2141f"
          ],
          "data": "0x0000000000000000000000000000000000000000000000004563918244f40000",
          "blockHash": "0xcf79c127b2a3e64a61e3bc6e67345bb6c9cadc504b8d64c98a61baeb73034c42",
          "blockNumber": "0x1ee4326",
          "blockTimestamp": "0x6866e4b8",
          "transactionHash": "0x18a55221509a1976d64a32b9fd9d3581a33b3928f0a8480fbf55bae0b9d3515b",
          "transactionIndex": "0x0",
          "logIndex": "0x0",
          "removed": false
        }
      ],
      "logsBloom": "0x00000000000000000000000000000000000000000000000000000000000000000000800000000000000000000000000000000000000000000000000000000000000000000000000000000008000000000000000000000000000000000000000000000000000000000000000100000000000100000000000000000010000000010000000000000000000000000000000000000000000000000000000000000000000010000000000000000000000000000000000000000000000000000000000000000012000000200000000000000000000000002000000000000000000000800000000000000000000000000000000000000000000000000000000000000000",
      "type": "0x2",
      "transactionHash": "0x18a55221509a1976d64a32b9fd9d3581a33b3928f0a8480fbf55bae0b9d3515b",
      "transactionIndex": "0x0",
      "blockHash": "0xcf79c127b2a3e64a61e3bc6e67345bb6c9cadc504b8d64c98a61baeb73034c42",
      "blockNumber": "0x1ee4326",
      "gasUsed": "0xc934",
      "effectiveGasPrice": "0x8",
      "blobGasPrice": "0x1",
      "from": "0xf39fd6e51aad88f6f4ce6ab8827279cfffb92266",
      "to": "0x50c5725949a6f0c72e6c4a641f24049a917db0cb",
      "contractAddress": null
    }
  ],
  "libraries": [
    "node_modules/@pythnetwork/pyth-sdk-solidity/PythUtils.sol:PythUtils:0xA438327c775e9092DBbb8155eB726C448DCcaeD5"
  ],
  "pending": [],
  "returns": {},
  "timestamp": 1751573689,
  "chain": 8453,
  "commit": "4fa7f10"
}